:1040000040C000207D440000794400007944000055
:104010007944000079440000794400000000000069
:1040200000000000000000000000000079440000D3
:104030007944000000000000794400007944000049
:10404000794400007944000079440000794400007C
:10405000794400007944000079440000794400006C
:10406000794400007944000079440000794400005C
:10407000794400007944000079440000794400004C
:10408000794400007944000079440000794400003C
:10409000794400007944000079440000794400002C
:1040A000794400007944000079440000794400001C
:1040B000794400007944000079440000794400000C
:1040C00079440000794400007944000079440000FC
:1040D00079440000794400007944000079440000EC
:1040E00079440000794400007944000079440000DC
:1040F00000000000414400007944000079440000C1
:1041000079440000794400007944000079440000BB
:1041100079440000794400007944000079440000AB
:10412000794400007944000079440000794400009B
:10413000794400007944000079440000794400008B
:10414000794400007944000079440000794400007B
:1041500079440000794400000000000000000000E5
:10416000000000000000000000000000000000004F
:10417000000000000000000000000000000000003F
:10418000794400007944000079440000794400003B
:1041900000000000794400007944000079440000E8
:1041A000794400007944000079440000794400001B
:1041B000794400007944000079440000794400000B
:1041C00079440000794400007944000079440000FB
:1041D00079440000794400007944000079440000EB
:1041E00079440000794400007944000079440000DB
:1041F00079440000794400007944000079440000CB
:104200007944000000000000000000007944000034
:1042100079440000794400007944000079440000AA
:10422000794400007944000079440000794400009A
:10423000794400007944000079440000794400008A
:10424000794400007944000079440000794400007A
:10425000794400007944000079440000794400006A
:104260000000000010B5054C237833B9044B13B19E
:104270000448AFF300800123237010BD0400002028
:1042800000000000F048000008B5034B1BB10349D3
:104290000348AFF3008008BD0000000008000020C4
:1042A000F048000070B50D461646044610B1081CD3
:1042B00018BF012034220549054B98472368324630
:1042C00029462046BDE87040184700BF344800002A
:1042D000E5420000014B024A1A60704700000020CE
:1042E000006CDC0200B900BE704700002DE9F84305
:1042F0000E461746044618B111B3101C18BF012012
:10430000F1221049104B114D98470834A946204618
:10431000A8470028FBD0DFF83C800025715D2046CF
:10432000C0472046C8470028FBD00135AF42F5D82A
:10433000074E2046B0470028FBD02846BDE8F8834A
:104340000846DDE748480000E5420000334700002A
:104350003D470000254700002DE9F8430E4617466B
:10436000044618B1D1B1101C18BF01204FF4867259
:104370000B490C4BDFF83090DFF830809847002570
:1043800008342046C8470028FBD02046C047705557
:104390000135AF42F5D82846BDE8F8830846E5E781
:1043A00048480000E5420000474700002B47000056
:1043B00038B50D46044610B1081C18BF0120074946
:1043C000074B34229847294604F10800054B9847CB
:1043D00018B9054B6360054B236038BD48480000A1
:1043E000E5420000DD46000059430000ED420000B8
:1043F00010B50446003018BF012053220449054B74
:10440000984704F10800044B9847002010BD00BFF6
:1044100048480000E54200000947000038B50D4655
:10442000044610B1081C18BF012069220249034B41
:1044300098472C60002038BD48480000E542000045
:104440000B4A937882B0DBB20193019B990705D5A3
:10445000084B1B6813B1506802B01847019BDB077B
:1044600004D5044B5B680BB1014AF4E702B0704716
:104470000000024120000020FEE7000008B5144AB9
:10448000144B9A4203D01449043A8B4218D3134B6D
:10449000134A0021934218D3124A134B22F07F0291
:1044A0009A60D3F8882042F47002C3F88820BFF3E2
:1044B0004F8FBFF36F8F0D4B98470D4B9847FEE71B
:1044C00052F8040F43F8040BDFE743F8041BE1E75D
:1044D000F04800000000002004000020040000203C
:1044E0003C0000200040000000ED00E0ED4700002F
:1044F000C147000013B5074C074B01A92046984758
:104500002046064B98470C2205490198054B9847D1
:1045100002B010BD300000201D440000F143000037
:1045200064480000A5420000104B93F8D02002F030
:10453000FE0242F0010283F8D02093F8B82002F086
:10454000F00242F0020283F8B82093F8D12002F082
:10455000FE0242F0010283F8D12093F8B82002F065
:104560000F0242F0200283F8B8207047008000411B
:10457000064B4022C3F80C214322C3F88C20044A86
:10458000136A43F002031362704700BF001C00402F
:104590000008004010B5054B9847054B05490648F3
:1045A00000229847054BBDE81040184771450000B0
:1045B000B143000000040043300000202945000002
:1045C0000F4B10484FF400124FF080419A609962EF
:1045D00098625A6193F8552002F0FE0283F8552044
:1045E0004FF400029A609962074999625A6193F800
:1045F000572002F0FE0283F85720044B184700BFF3
:1046000000800041200000C0800000C095450000EF
:10461000C3690B42FCD1704708B50321034B98478F
:10462000036823F00203036008BD00BF11460000C9
:1046300070B50B4D06460FCD86B06C460FC495E89D
:10464000030084E8030000205DF82030B34202D16B
:10465000C0B206B070BD01300628F5D10020F8E7E1
:104660007448000010B5164B04469847052805D03D
:1046700040F247221349144B00209847E369134A3C
:1046800013F0010F09D123689B0704D52046104B76
:104690009847022190470523236020460121904737
:1046A0000C4B23604FF4403363600B4BA36000203E
:1046B0004FF62E73A381A07384F8300010BD00BFA5
:1046C00031460000B5480000E542000011460000F8
:1046D00019460000040010400200700070B5054645
:1046E00000300C4618BF0120044B0549BB229847F7
:1046F0002C602046034BBDE870401847E54200009F
:10470000B548000065460000026808B50321044B67
:1047100010469847136843F00203136008BD00BFBA
:10472000114600000368996270470368986AC0B236
:1047300070470368187E00F0010070470368187E18
:10474000C0F3400070470368187EC0F380007047D4
:10475000004B1847C1450000044B4FF400029A601B
:10476000DA619969114399615A617047008000418B
:10477000054B82B00193019B002B01DC02B0704716
:10478000019B013BF6E700BF1FD61300054A064810
:1047900010B54FF400015161D1618047BDE8104070
:1047A000D1610047008000417147000038B5034DDA
:1047B0001624A847013CFCD138BD00BF8D4700003E
:1047C00008B5054B9847054B9847054B9847054B4F
:1047D0009847054B9847FEE751470000D542000037
:1047E00059470000AD470000F544000070B50D4E7C
:1047F0000D4CA41BA4100025A54209D10B4E0C4C56
:1048000000F066F8A41BA4100025A54205D170BDD8
:1048100056F8253098470135EEE756F82530984789
:104820000135F2E7DC480000DC480000DC4800000D
:10483000E04800002E2E2F68616C2F7372632F6882
:10484000616C5F696F2E63002E2E2F68616C2F7371
:1048500072632F68616C5F75736172745F73796ED8
:10486000632E630048656C6C6F20576F726C642117
:1048700000000000003000400034004000200141F2
:10488000004001410000004300040043000000001C
:104890000000000000000000000000000000000018
:1048A0000000000000000000000000000000000008
:1048B00000000000002E2E2F68706C2F736572634D
:1048C0006F6D2F68706C5F736572636F6D2E630020
:1048D000F8B500BFF8BC08BC9E467047894200008E
:1048E000F8B500BFF8BC08BC9E46704765420000A2
:0448F000006CDC027A
:0400000300004000B9
:00000001FF
